{
  "address": "0xdbC43Ba45381e02825b14322cDdd15eC4B3164E6",
  "abi": [
    {
      "inputs": [
        {
          "internalType": "address",
          "name": "_token",
          "type": "address"
        }
      ],
      "stateMutability": "nonpayable",
      "type": "constructor"
    },
    {
      "anonymous": false,
      "inputs": [
        {
          "indexed": false,
          "internalType": "address",
          "name": "developer",
          "type": "address"
        },
        {
          "indexed": false,
          "internalType": "uint256",
          "name": "amount",
          "type": "uint256"
        }
      ],
      "name": "employ",
      "type": "event"
    },
    {
      "inputs": [
        {
          "internalType": "address",
          "name": "_dev",
          "type": "address"
        }
      ],
      "name": "approveDev",
      "outputs": [],
      "stateMutability": "nonpayable",
      "type": "function"
    },
    {
      "inputs": [],
      "name": "claim",
      "outputs": [],
      "stateMutability": "nonpayable",
      "type": "function"
    },
    {
      "inputs": [
        {
          "internalType": "address",
          "name": "_dev",
          "type": "address"
        }
      ],
      "name": "half",
      "outputs": [],
      "stateMutability": "nonpayable",
      "type": "function"
    },
    {
      "inputs": [
        {
          "internalType": "address",
          "name": "_dev",
          "type": "address"
        }
      ],
      "name": "isClaimable",
      "outputs": [
        {
          "internalType": "bool",
          "name": "",
          "type": "bool"
        }
      ],
      "stateMutability": "view",
      "type": "function"
    },
    {
      "inputs": [
        {
          "internalType": "address",
          "name": "_dev",
          "type": "address"
        },
        {
          "internalType": "uint256",
          "name": "amount",
          "type": "uint256"
        }
      ],
      "name": "payForWork",
      "outputs": [],
      "stateMutability": "nonpayable",
      "type": "function"
    },
    {
      "inputs": [
        {
          "internalType": "address",
          "name": "_user",
          "type": "address"
        }
      ],
      "name": "returnUserDev",
      "outputs": [
        {
          "internalType": "address",
          "name": "",
          "type": "address"
        }
      ],
      "stateMutability": "view",
      "type": "function"
    },
    {
      "inputs": [
        {
          "internalType": "address",
          "name": "_to",
          "type": "address"
        },
        {
          "internalType": "address",
          "name": "_dev",
          "type": "address"
        },
        {
          "internalType": "uint256",
          "name": "amount",
          "type": "uint256"
        }
      ],
      "name": "superFunc",
      "outputs": [],
      "stateMutability": "nonpayable",
      "type": "function"
    },
    {
      "inputs": [],
      "name": "totalPotSupply",
      "outputs": [
        {
          "internalType": "uint256",
          "name": "",
          "type": "uint256"
        }
      ],
      "stateMutability": "view",
      "type": "function"
    },
    {
      "inputs": [
        {
          "internalType": "address",
          "name": "_newOwner",
          "type": "address"
        }
      ],
      "name": "transferOwnership",
      "outputs": [],
      "stateMutability": "nonpayable",
      "type": "function"
    },
    {
      "inputs": [
        {
          "internalType": "address",
          "name": "_dev",
          "type": "address"
        }
      ],
      "name": "viewDevBalance",
      "outputs": [
        {
          "internalType": "uint256",
          "name": "",
          "type": "uint256"
        }
      ],
      "stateMutability": "view",
      "type": "function"
    }
  ],
  "transactionHash": "0xd384c49afebcaa3b2b475c53e30a722d13f7459f3be6106aadd415412cee1c62",
  "args": [
    "0x922D6956C99E12DFeB3224DEA977D0939758A1Fe"
  ],
  "solcInputHash": "571d11ffa5b43ca401ba4f750583414f",
  "bytecode": "0x608060405234801561001057600080fd5b50604051610b0a380380610b0a83398101604081905261002f91610062565b60018054336001600160a01b031991821617909155600280549091166001600160a01b0392909216919091179055610092565b60006020828403121561007457600080fd5b81516001600160a01b038116811461008b57600080fd5b9392505050565b610a69806100a16000396000f3fe608060405234801561001057600080fd5b506004361061009e5760003560e01c80636a9df136116100665780636a9df136146101265780639b68179114610139578063b19727201461014c578063ea25ab4914610190578063f2fde38b146101b957600080fd5b8063292fec04146100a35780632d23d13a146100e45780634ca41251146100f65780634e71d92d1461010b57806355a11ccb14610113575b600080fd5b6100cf6100b1366004610909565b6001600160a01b031660009081526004602052604090205460ff1690565b60405190151581526020015b60405180910390f35b6000545b6040519081526020016100db565b610109610104366004610909565b6101cc565b005b610109610253565b61010961012136600461092b565b610376565b610109610134366004610909565b61056f565b610109610147366004610955565b610758565b61017861015a366004610909565b6001600160a01b039081166000908152600560205260409020541690565b6040516001600160a01b0390911681526020016100db565b6100e861019e366004610909565b6001600160a01b031660009081526003602052604090205490565b6101096101c7366004610909565b61087a565b336000908152600560205260409020546001600160a01b0382811691161461022f5760405162461bcd60e51b81526020600482015260116024820152704e6f742041737369676e6564206465762160781b60448201526064015b60405180910390fd5b6001600160a01b03166000908152600460205260409020805460ff19166001179055565b3360009081526004602052604090205460ff1615156001146102a75760405162461bcd60e51b815260206004820152600d60248201526c4e6f7420417070726f7665642160981b6044820152606401610226565b33600090815260036020526040812054815490919081906102c99084906109a7565b9091555050600254336000818152600360205260409081902054905163a9059cbb60e01b8152600481019290925260248201526001600160a01b039091169063a9059cbb90604401602060405180830381600087803b15801561032b57600080fd5b505af115801561033f573d6000803e3d6000fd5b505050506040513d601f19601f8201168201806040525081019061036391906109be565b5033600090815260036020526040812055565b600254604051636eb1769f60e11b81523360048201523060248201526000916001600160a01b03169063dd62ed3e9060440160206040518083038186803b1580156103c057600080fd5b505afa1580156103d4573d6000803e3d6000fd5b505050506040513d601f19601f820116820180604052508101906103f891906109e0565b116104365760405162461bcd60e51b815260206004820152600e60248201526d105b1b1bddd85b98d948139d5b1b60921b6044820152606401610226565b6002546040516323b872dd60e01b8152336004820152306024820152604481018390526001600160a01b03909116906323b872dd90606401602060405180830381600087803b15801561048857600080fd5b505af115801561049c573d6000803e3d6000fd5b505050506040513d601f19601f820116820180604052508101906104c091906109be565b506001600160a01b038216600090815260036020526040812080548392906104e99084906109f9565b925050819055508060008082825461050191906109f9565b90915550503360009081526005602090815260409182902080546001600160a01b0319166001600160a01b03861690811790915582519081529081018390527f81388cfe13c28e8741b458f6f6d8e212c216fc74abb2ab233e9110fa9938cef6910160405180910390a15050565b336000908152600560205260409020546001600160a01b038281169116146105ce5760405162461bcd60e51b8152602060048201526012602482015271446576206f7574206f6620626f756e64732160701b6044820152606401610226565b6001600160a01b03811660009081526003602052604081205481549091829181906105fa9084906109a7565b9091555050600280546001600160a01b03169063a9059cbb90849061061f9085610a11565b6040516001600160e01b031960e085901b1681526001600160a01b0390921660048301526024820152604401602060405180830381600087803b15801561066557600080fd5b505af1158015610679573d6000803e3d6000fd5b505050506040513d601f19601f8201168201806040525081019061069d91906109be565b50600280546001600160a01b03169063a9059cbb9033906106be9085610a11565b6040516001600160e01b031960e085901b1681526001600160a01b0390921660048301526024820152604401602060405180830381600087803b15801561070457600080fd5b505af1158015610718573d6000803e3d6000fd5b505050506040513d601f19601f8201168201806040525081019061073c91906109be565b50506001600160a01b0316600090815260036020526040812055565b6001546001600160a01b031633146107a95760405162461bcd60e51b8152602060048201526014602482015273556e617574686f7269736564204163636573732160601b6044820152606401610226565b60025460405163a9059cbb60e01b81526001600160a01b038581166004830152602482018490529091169063a9059cbb90604401602060405180830381600087803b1580156107f757600080fd5b505af115801561080b573d6000803e3d6000fd5b505050506040513d601f19601f8201168201806040525081019061082f91906109be565b506001600160a01b038216600090815260036020526040812080548392906108589084906109a7565b925050819055508060008082825461087091906109a7565b9091555050505050565b6001546001600160a01b031633146108cb5760405162461bcd60e51b8152602060048201526014602482015273556e617574686f7269736564204163636573732160601b6044820152606401610226565b600180546001600160a01b0319166001600160a01b0392909216919091179055565b80356001600160a01b038116811461090457600080fd5b919050565b60006020828403121561091b57600080fd5b610924826108ed565b9392505050565b6000806040838503121561093e57600080fd5b610947836108ed565b946020939093013593505050565b60008060006060848603121561096a57600080fd5b610973846108ed565b9250610981602085016108ed565b9150604084013590509250925092565b634e487b7160e01b600052601160045260246000fd5b6000828210156109b9576109b9610991565b500390565b6000602082840312156109d057600080fd5b8151801515811461092457600080fd5b6000602082840312156109f257600080fd5b5051919050565b60008219821115610a0c57610a0c610991565b500190565b600082610a2e57634e487b7160e01b600052601260045260246000fd5b50049056fea2646970667358221220868712ebf5e8c2f6f72fdc9dfc6bb29ad76a274592477015c9c26ecca1afa3b764736f6c63430008080033",
  "devdoc": {
    "kind": "dev",
    "methods": {},
    "version": 1
  },
  "userdoc": {
    "kind": "user",
    "methods": {},
    "version": 1
  },
  "storageLayout": {
    "storage": [
      {
        "astId": 82,
        "contract": "contracts/Trust.sol:Trust",
        "label": "pot",
        "offset": 0,
        "slot": "0",
        "type": "t_uint256"
      },
      {
        "astId": 84,
        "contract": "contracts/Trust.sol:Trust",
        "label": "owner",
        "offset": 0,
        "slot": "1",
        "type": "t_address"
      },
      {
        "astId": 87,
        "contract": "contracts/Trust.sol:Trust",
        "label": "token",
        "offset": 0,
        "slot": "2",
        "type": "t_contract(IERC20)77"
      },
      {
        "astId": 157,
        "contract": "contracts/Trust.sol:Trust",
        "label": "balances",
        "offset": 0,
        "slot": "3",
        "type": "t_mapping(t_address,t_uint256)"
      },
      {
        "astId": 161,
        "contract": "contracts/Trust.sol:Trust",
        "label": "allowances",
        "offset": 0,
        "slot": "4",
        "type": "t_mapping(t_address,t_bool)"
      },
      {
        "astId": 165,
        "contract": "contracts/Trust.sol:Trust",
        "label": "user2dev",
        "offset": 0,
        "slot": "5",
        "type": "t_mapping(t_address,t_address)"
      }
    ],
    "types": {
      "t_address": {
        "encoding": "inplace",
        "label": "address",
        "numberOfBytes": "20"
      },
      "t_bool": {
        "encoding": "inplace",
        "label": "bool",
        "numberOfBytes": "1"
      },
      "t_contract(IERC20)77": {
        "encoding": "inplace",
        "label": "contract IERC20",
        "numberOfBytes": "20"
      },
      "t_mapping(t_address,t_address)": {
        "encoding": "mapping",
        "key": "t_address",
        "label": "mapping(address => address)",
        "numberOfBytes": "32",
        "value": "t_address"
      },
      "t_mapping(t_address,t_bool)": {
        "encoding": "mapping",
        "key": "t_address",
        "label": "mapping(address => bool)",
        "numberOfBytes": "32",
        "value": "t_bool"
      },
      "t_mapping(t_address,t_uint256)": {
        "encoding": "mapping",
        "key": "t_address",
        "label": "mapping(address => uint256)",
        "numberOfBytes": "32",
        "value": "t_uint256"
      },
      "t_uint256": {
        "encoding": "inplace",
        "label": "uint256",
        "numberOfBytes": "32"
      }
    }
  }
}