{
  "contractName": "YourContract",
  "abi": [
    {
      "inputs": [],
      "stateMutability": "payable",
      "type": "constructor",
      "payable": true
    },
    {
      "anonymous": false,
      "inputs": [
        {
          "indexed": false,
          "internalType": "address",
          "name": "sender",
          "type": "address"
        },
        {
          "indexed": false,
          "internalType": "string",
          "name": "purpose",
          "type": "string"
        }
      ],
      "name": "SetPurpose",
      "type": "event"
    },
    {
      "stateMutability": "payable",
      "type": "fallback",
      "payable": true
    },
    {
      "inputs": [],
      "name": "purpose",
      "outputs": [
        {
          "internalType": "string",
          "name": "",
          "type": "string"
        }
      ],
      "stateMutability": "view",
      "type": "function",
      "constant": true
    },
    {
      "stateMutability": "payable",
      "type": "receive",
      "payable": true
    },
    {
      "inputs": [
        {
          "internalType": "string",
          "name": "newPurpose",
          "type": "string"
        }
      ],
      "name": "setPurpose",
      "outputs": [],
      "stateMutability": "nonpayable",
      "type": "function"
    }
  ],
  "bytecode": "0x60c0604052601c60808190527f4275696c64696e6720556e73746f707061626c6520417070732121210000000060a090815261003e9160009190610044565b50610118565b828054610050906100dd565b90600052602060002090601f01602090048101928261007257600085556100b8565b82601f1061008b57805160ff19168380011785556100b8565b828001600101855582156100b8579182015b828111156100b857825182559160200191906001019061009d565b506100c49291506100c8565b5090565b5b808211156100c457600081556001016100c9565b6002810460018216806100f157607f821691505b6020821081141561011257634e487b7160e01b600052602260045260246000fd5b50919050565b610451806101276000396000f3fe60806040526004361061002d5760003560e01c806370740aab14610036578063eb68757f1461006157610034565b3661003457005b005b34801561004257600080fd5b5061004b610081565b6040516100589190610362565b60405180910390f35b34801561006d57600080fd5b5061003461007c3660046101f9565b61010f565b6000805461008e906103ca565b80601f01602080910402602001604051908101604052809291908181526020018280546100ba906103ca565b80156101075780601f106100dc57610100808354040283529160200191610107565b820191906000526020600020905b8154815290600101906020018083116100ea57829003601f168201915b505050505081565b8051610122906000906020840190610160565b507f6ea5d6383a120235c7728a9a6751672a8ac068e4ed34dcca2ee444182c1812de33600060405161015592919061029a565b60405180910390a150565b82805461016c906103ca565b90600052602060002090601f01602090048101928261018e57600085556101d4565b82601f106101a757805160ff19168380011785556101d4565b828001600101855582156101d4579182015b828111156101d45782518255916020019190600101906101b9565b506101e09291506101e4565b5090565b5b808211156101e057600081556001016101e5565b6000602080838503121561020b578182fd5b823567ffffffffffffffff80821115610222578384fd5b818501915085601f830112610235578384fd5b81358181111561024757610247610405565b604051601f8201601f191681018501838111828210171561026a5761026a610405565b6040528181528382018501881015610280578586fd5b818585018683013790810190930193909352509392505050565b600073ffffffffffffffffffffffffffffffffffffffff841682526020604081840152818454836002820490506001808316806102d857607f831692505b8583108114156102f657634e487b7160e01b87526022600452602487fd5b6103038360408a016103c1565b818015610317576001811461032857610352565b60ff19861682528782019650610352565b6103318b6103b5565b895b8681101561034c57815484820152908501908901610333565b83019750505b50949a9950505050505050505050565b6000602080835283518082850152825b8181101561038e57858101830151858201604001528201610372565b8181111561039f5783604083870101525b50601f01601f1916929092016040019392505050565b60009081526020902090565b90815260200190565b6002810460018216806103de57607f821691505b602082108114156103ff57634e487b7160e01b600052602260045260246000fd5b50919050565b634e487b7160e01b600052604160045260246000fdfea2646970667358221220cefccea01bbb4df59932230878aafb77b6d23caf6f908284c279cc8f26c5802e64736f6c63430008000033",
  "immutableReferences": {},
  "source": "pragma solidity >=0.8.0 <0.9.0;\n\n//SPDX-License-Identifier: MIT\n\n// import \"@openzeppelin/contracts/access/Ownable.sol\";\n// https://github.com/OpenZeppelin/openzeppelin-contracts/blob/master/contracts/access/Ownable.sol\n\ncontract YourContract {\n    event SetPurpose(address sender, string purpose);\n\n    string public purpose = \"Building Unstoppable Apps!!!\";\n\n    constructor() payable {\n        // what should we do on deploy?\n    }\n\n    function setPurpose(string memory newPurpose) public {\n        purpose = newPurpose;\n        emit SetPurpose(msg.sender, purpose);\n    }\n\n    // to support receiving ETH by default\n    receive() external payable {}\n\n    fallback() external payable {}\n}\n",
  "sourcePath": "/home/sodium/Coding/Trust/packages/truffle/contracts/YourContract.sol",
  "compiler": {
    "name": "solc",
    "version": "0.8.0+commit.c7dfd78e.Emscripten.clang"
  },
  "schemaVersion": "3.4.7",
  "updatedAt": "2023-01-16T11:29:01.337Z",
  "networkType": "ethereum",
  "devdoc": {
    "kind": "dev",
    "methods": {},
    "version": 1
  },
  "userdoc": {
    "kind": "user",
    "methods": {},
    "version": 1
  }
}