{
  "_format": "hh-sol-artifact-1",
  "contractName": "Trust",
  "sourceName": "contracts/Trust.sol",
  "abi": [
    {
      "inputs": [
        {
          "internalType": "address",
          "name": "_token",
          "type": "address"
        }
      ],
      "stateMutability": "nonpayable",
      "type": "constructor"
    },
    {
      "anonymous": false,
      "inputs": [
        {
          "indexed": false,
          "internalType": "address",
          "name": "developer",
          "type": "address"
        },
        {
          "indexed": false,
          "internalType": "uint256",
          "name": "amount",
          "type": "uint256"
        }
      ],
      "name": "employ",
      "type": "event"
    },
    {
      "inputs": [
        {
          "internalType": "address",
          "name": "_dev",
          "type": "address"
        }
      ],
      "name": "approveDev",
      "outputs": [],
      "stateMutability": "nonpayable",
      "type": "function"
    },
    {
      "inputs": [],
      "name": "claim",
      "outputs": [],
      "stateMutability": "nonpayable",
      "type": "function"
    },
    {
      "inputs": [
        {
          "internalType": "address",
          "name": "_dev",
          "type": "address"
        }
      ],
      "name": "half",
      "outputs": [],
      "stateMutability": "nonpayable",
      "type": "function"
    },
    {
      "inputs": [
        {
          "internalType": "address",
          "name": "_dev",
          "type": "address"
        }
      ],
      "name": "isClaimable",
      "outputs": [
        {
          "internalType": "bool",
          "name": "",
          "type": "bool"
        }
      ],
      "stateMutability": "view",
      "type": "function"
    },
    {
      "inputs": [],
      "name": "owner",
      "outputs": [
        {
          "internalType": "address",
          "name": "",
          "type": "address"
        }
      ],
      "stateMutability": "view",
      "type": "function"
    },
    {
      "inputs": [
        {
          "internalType": "address",
          "name": "_dev",
          "type": "address"
        },
        {
          "internalType": "uint256",
          "name": "amount",
          "type": "uint256"
        }
      ],
      "name": "payForWork",
      "outputs": [],
      "stateMutability": "nonpayable",
      "type": "function"
    },
    {
      "inputs": [
        {
          "internalType": "address",
          "name": "_user",
          "type": "address"
        }
      ],
      "name": "returnUserDev",
      "outputs": [
        {
          "internalType": "address",
          "name": "",
          "type": "address"
        }
      ],
      "stateMutability": "view",
      "type": "function"
    },
    {
      "inputs": [
        {
          "internalType": "address",
          "name": "_to",
          "type": "address"
        },
        {
          "internalType": "address",
          "name": "_dev",
          "type": "address"
        },
        {
          "internalType": "uint256",
          "name": "amount",
          "type": "uint256"
        }
      ],
      "name": "superFunc",
      "outputs": [],
      "stateMutability": "nonpayable",
      "type": "function"
    },
    {
      "inputs": [],
      "name": "totalPotSupply",
      "outputs": [
        {
          "internalType": "uint256",
          "name": "",
          "type": "uint256"
        }
      ],
      "stateMutability": "view",
      "type": "function"
    },
    {
      "inputs": [
        {
          "internalType": "address",
          "name": "_newOwner",
          "type": "address"
        }
      ],
      "name": "transferOwnership",
      "outputs": [],
      "stateMutability": "nonpayable",
      "type": "function"
    },
    {
      "inputs": [
        {
          "internalType": "address",
          "name": "_dev",
          "type": "address"
        }
      ],
      "name": "viewDevBalance",
      "outputs": [
        {
          "internalType": "uint256",
          "name": "",
          "type": "uint256"
        }
      ],
      "stateMutability": "view",
      "type": "function"
    }
  ],
  "bytecode": "0x608060405234801561001057600080fd5b50604051610b28380380610b2883398101604081905261002f91610062565b60018054336001600160a01b031991821617909155600280549091166001600160a01b0392909216919091179055610092565b60006020828403121561007457600080fd5b81516001600160a01b038116811461008b57600080fd5b9392505050565b610a87806100a16000396000f3fe608060405234801561001057600080fd5b50600436106100a95760003560e01c80636a9df136116100715780636a9df136146101315780638da5cb5b146101445780639b6817911461016f578063b197272014610182578063ea25ab49146101ae578063f2fde38b146101d757600080fd5b8063292fec04146100ae5780632d23d13a146100ef5780634ca41251146101015780634e71d92d1461011657806355a11ccb1461011e575b600080fd5b6100da6100bc366004610927565b6001600160a01b031660009081526004602052604090205460ff1690565b60405190151581526020015b60405180910390f35b6000545b6040519081526020016100e6565b61011461010f366004610927565b6101ea565b005b610114610271565b61011461012c366004610949565b610394565b61011461013f366004610927565b61058d565b600154610157906001600160a01b031681565b6040516001600160a01b0390911681526020016100e6565b61011461017d366004610973565b610776565b610157610190366004610927565b6001600160a01b039081166000908152600560205260409020541690565b6100f36101bc366004610927565b6001600160a01b031660009081526003602052604090205490565b6101146101e5366004610927565b610898565b336000908152600560205260409020546001600160a01b0382811691161461024d5760405162461bcd60e51b81526020600482015260116024820152704e6f742041737369676e6564206465762160781b60448201526064015b60405180910390fd5b6001600160a01b03166000908152600460205260409020805460ff19166001179055565b3360009081526004602052604090205460ff1615156001146102c55760405162461bcd60e51b815260206004820152600d60248201526c4e6f7420417070726f7665642160981b6044820152606401610244565b33600090815260036020526040812054815490919081906102e79084906109c5565b9091555050600254336000818152600360205260409081902054905163a9059cbb60e01b8152600481019290925260248201526001600160a01b039091169063a9059cbb90604401602060405180830381600087803b15801561034957600080fd5b505af115801561035d573d6000803e3d6000fd5b505050506040513d601f19601f8201168201806040525081019061038191906109dc565b5033600090815260036020526040812055565b600254604051636eb1769f60e11b81523360048201523060248201526000916001600160a01b03169063dd62ed3e9060440160206040518083038186803b1580156103de57600080fd5b505afa1580156103f2573d6000803e3d6000fd5b505050506040513d601f19601f8201168201806040525081019061041691906109fe565b116104545760405162461bcd60e51b815260206004820152600e60248201526d105b1b1bddd85b98d948139d5b1b60921b6044820152606401610244565b6002546040516323b872dd60e01b8152336004820152306024820152604481018390526001600160a01b03909116906323b872dd90606401602060405180830381600087803b1580156104a657600080fd5b505af11580156104ba573d6000803e3d6000fd5b505050506040513d601f19601f820116820180604052508101906104de91906109dc565b506001600160a01b03821660009081526003602052604081208054839290610507908490610a17565b925050819055508060008082825461051f9190610a17565b90915550503360009081526005602090815260409182902080546001600160a01b0319166001600160a01b03861690811790915582519081529081018390527f81388cfe13c28e8741b458f6f6d8e212c216fc74abb2ab233e9110fa9938cef6910160405180910390a15050565b336000908152600560205260409020546001600160a01b038281169116146105ec5760405162461bcd60e51b8152602060048201526012602482015271446576206f7574206f6620626f756e64732160701b6044820152606401610244565b6001600160a01b03811660009081526003602052604081205481549091829181906106189084906109c5565b9091555050600280546001600160a01b03169063a9059cbb90849061063d9085610a2f565b6040516001600160e01b031960e085901b1681526001600160a01b0390921660048301526024820152604401602060405180830381600087803b15801561068357600080fd5b505af1158015610697573d6000803e3d6000fd5b505050506040513d601f19601f820116820180604052508101906106bb91906109dc565b50600280546001600160a01b03169063a9059cbb9033906106dc9085610a2f565b6040516001600160e01b031960e085901b1681526001600160a01b0390921660048301526024820152604401602060405180830381600087803b15801561072257600080fd5b505af1158015610736573d6000803e3d6000fd5b505050506040513d601f19601f8201168201806040525081019061075a91906109dc565b50506001600160a01b0316600090815260036020526040812055565b6001546001600160a01b031633146107c75760405162461bcd60e51b8152602060048201526014602482015273556e617574686f7269736564204163636573732160601b6044820152606401610244565b60025460405163a9059cbb60e01b81526001600160a01b038581166004830152602482018490529091169063a9059cbb90604401602060405180830381600087803b15801561081557600080fd5b505af1158015610829573d6000803e3d6000fd5b505050506040513d601f19601f8201168201806040525081019061084d91906109dc565b506001600160a01b038216600090815260036020526040812080548392906108769084906109c5565b925050819055508060008082825461088e91906109c5565b9091555050505050565b6001546001600160a01b031633146108e95760405162461bcd60e51b8152602060048201526014602482015273556e617574686f7269736564204163636573732160601b6044820152606401610244565b600180546001600160a01b0319166001600160a01b0392909216919091179055565b80356001600160a01b038116811461092257600080fd5b919050565b60006020828403121561093957600080fd5b6109428261090b565b9392505050565b6000806040838503121561095c57600080fd5b6109658361090b565b946020939093013593505050565b60008060006060848603121561098857600080fd5b6109918461090b565b925061099f6020850161090b565b9150604084013590509250925092565b634e487b7160e01b600052601160045260246000fd5b6000828210156109d7576109d76109af565b500390565b6000602082840312156109ee57600080fd5b8151801515811461094257600080fd5b600060208284031215610a1057600080fd5b5051919050565b60008219821115610a2a57610a2a6109af565b500190565b600082610a4c57634e487b7160e01b600052601260045260246000fd5b50049056fea2646970667358221220c7c9596fd804c113eb521309c6d1d1f2f38817a6ab4691a544bfd6c58c0b88be64736f6c63430008080033",
  "linkReferences": {},
  "deployedLinkReferences": {}
}