{
  "_format": "hh-sol-artifact-1",
  "contractName": "Marshal",
  "sourceName": "contracts/Marshal.sol",
  "abi": [
    {
      "inputs": [],
      "stateMutability": "payable",
      "type": "constructor"
    },
    {
      "anonymous": false,
      "inputs": [
        {
          "indexed": true,
          "internalType": "address",
          "name": "owner",
          "type": "address"
        },
        {
          "indexed": true,
          "internalType": "address",
          "name": "spender",
          "type": "address"
        },
        {
          "indexed": false,
          "internalType": "uint256",
          "name": "value",
          "type": "uint256"
        }
      ],
      "name": "Approval",
      "type": "event"
    },
    {
      "anonymous": false,
      "inputs": [
        {
          "indexed": true,
          "internalType": "address",
          "name": "from",
          "type": "address"
        },
        {
          "indexed": true,
          "internalType": "address",
          "name": "to",
          "type": "address"
        },
        {
          "indexed": false,
          "internalType": "uint256",
          "name": "value",
          "type": "uint256"
        }
      ],
      "name": "Transfer",
      "type": "event"
    },
    {
      "inputs": [],
      "name": "addrContract",
      "outputs": [
        {
          "internalType": "address",
          "name": "",
          "type": "address"
        }
      ],
      "stateMutability": "view",
      "type": "function"
    },
    {
      "inputs": [
        {
          "internalType": "address",
          "name": "owner",
          "type": "address"
        },
        {
          "internalType": "address",
          "name": "spender",
          "type": "address"
        }
      ],
      "name": "allowance",
      "outputs": [
        {
          "internalType": "uint256",
          "name": "",
          "type": "uint256"
        }
      ],
      "stateMutability": "view",
      "type": "function"
    },
    {
      "inputs": [
        {
          "internalType": "address",
          "name": "spender",
          "type": "address"
        },
        {
          "internalType": "uint256",
          "name": "amount",
          "type": "uint256"
        }
      ],
      "name": "approve",
      "outputs": [
        {
          "internalType": "bool",
          "name": "",
          "type": "bool"
        }
      ],
      "stateMutability": "nonpayable",
      "type": "function"
    },
    {
      "inputs": [
        {
          "internalType": "address",
          "name": "account",
          "type": "address"
        }
      ],
      "name": "balanceOf",
      "outputs": [
        {
          "internalType": "uint256",
          "name": "",
          "type": "uint256"
        }
      ],
      "stateMutability": "view",
      "type": "function"
    },
    {
      "inputs": [],
      "name": "decimals",
      "outputs": [
        {
          "internalType": "uint8",
          "name": "",
          "type": "uint8"
        }
      ],
      "stateMutability": "view",
      "type": "function"
    },
    {
      "inputs": [
        {
          "internalType": "address",
          "name": "spender",
          "type": "address"
        },
        {
          "internalType": "uint256",
          "name": "subtractedValue",
          "type": "uint256"
        }
      ],
      "name": "decreaseAllowance",
      "outputs": [
        {
          "internalType": "bool",
          "name": "",
          "type": "bool"
        }
      ],
      "stateMutability": "nonpayable",
      "type": "function"
    },
    {
      "inputs": [
        {
          "internalType": "address",
          "name": "spender",
          "type": "address"
        },
        {
          "internalType": "uint256",
          "name": "addedValue",
          "type": "uint256"
        }
      ],
      "name": "increaseAllowance",
      "outputs": [
        {
          "internalType": "bool",
          "name": "",
          "type": "bool"
        }
      ],
      "stateMutability": "nonpayable",
      "type": "function"
    },
    {
      "inputs": [],
      "name": "name",
      "outputs": [
        {
          "internalType": "string",
          "name": "",
          "type": "string"
        }
      ],
      "stateMutability": "view",
      "type": "function"
    },
    {
      "inputs": [],
      "name": "owner",
      "outputs": [
        {
          "internalType": "address",
          "name": "",
          "type": "address"
        }
      ],
      "stateMutability": "view",
      "type": "function"
    },
    {
      "inputs": [],
      "name": "symbol",
      "outputs": [
        {
          "internalType": "string",
          "name": "",
          "type": "string"
        }
      ],
      "stateMutability": "view",
      "type": "function"
    },
    {
      "inputs": [],
      "name": "totalSupply",
      "outputs": [
        {
          "internalType": "uint256",
          "name": "",
          "type": "uint256"
        }
      ],
      "stateMutability": "view",
      "type": "function"
    },
    {
      "inputs": [
        {
          "internalType": "address",
          "name": "to",
          "type": "address"
        },
        {
          "internalType": "uint256",
          "name": "amount",
          "type": "uint256"
        }
      ],
      "name": "transfer",
      "outputs": [
        {
          "internalType": "bool",
          "name": "",
          "type": "bool"
        }
      ],
      "stateMutability": "nonpayable",
      "type": "function"
    },
    {
      "inputs": [
        {
          "internalType": "address",
          "name": "from",
          "type": "address"
        },
        {
          "internalType": "address",
          "name": "to",
          "type": "address"
        },
        {
          "internalType": "uint256",
          "name": "amount",
          "type": "uint256"
        }
      ],
      "name": "transferFrom",
      "outputs": [
        {
          "internalType": "bool",
          "name": "",
          "type": "bool"
        }
      ],
      "stateMutability": "nonpayable",
      "type": "function"
    },
    {
      "inputs": [
        {
          "internalType": "address",
          "name": "_newOwner",
          "type": "address"
        }
      ],
      "name": "transferOwnership",
      "outputs": [],
      "stateMutability": "nonpayable",
      "type": "function"
    }
  ],
  "bytecode": "0x600760808181526613585c9cda185b60ca1b60a0908152610100604052600260c090815261135360f21b60e05291926200003c916003916200025e565b508051620000529060049060208401906200025e565b5050600580546001600160a01b031916339081179091556200007f9150683635c9adc5dea0000062000107565b60408051808201909152601281527102130b630b731b29037b31037bbb732b91d160751b6020820152600554620001019190670de0b6b3a764000090620000e4906001600160a01b03166001600160a01b031660009081526020819052604090205490565b620000f0919062000304565b620001f060201b620004781760201c565b620003eb565b6001600160a01b038216620001625760405162461bcd60e51b815260206004820152601f60248201527f45524332303a206d696e7420746f20746865207a65726f206164647265737300604482015260640160405180910390fd5b806002600082825462000176919062000327565b90915550506001600160a01b03821660009081526020819052604081208054839290620001a590849062000327565b90915550506040518181526001600160a01b038316906000907fddf252ad1be2c89b69c2b068fc378daa952ba7f163c4a11628f55a4df523b3ef9060200160405180910390a35b5050565b620001ec8282604051602401620002099291906200034e565b60408051601f198184030181529190526020810180516001600160e01b03908116632d839cb360e21b179091526200023d16565b80516a636f6e736f6c652e6c6f67602083016000808483855afa5050505050565b8280546200026c90620003ae565b90600052602060002090601f016020900481019282620002905760008555620002db565b82601f10620002ab57805160ff1916838001178555620002db565b82800160010185558215620002db579182015b82811115620002db578251825591602001919060010190620002be565b50620002e9929150620002ed565b5090565b5b80821115620002e95760008155600101620002ee565b6000826200032257634e487b7160e01b600052601260045260246000fd5b500490565b600082198211156200034957634e487b7160e01b600052601160045260246000fd5b500190565b604081526000835180604084015260005b818110156200037e57602081870181015160608684010152016200035f565b8181111562000391576000606083860101525b50602083019390935250601f91909101601f191601606001919050565b600181811c90821680620003c357607f821691505b60208210811415620003e557634e487b7160e01b600052602260045260246000fd5b50919050565b610b1d80620003fb6000396000f3fe608060405234801561001057600080fd5b50600436106100ea5760003560e01c806370a082311161008c578063a457c2d711610066578063a457c2d7146101d5578063a9059cbb146101e8578063dd62ed3e146101fb578063f2fde38b1461020e57600080fd5b806370a08231146101915780638da5cb5b146101ba57806395d89b41146101cd57600080fd5b806323b872dd116100c857806323b872dd14610142578063313ce5671461015557806334c9dff714610164578063395093511461017e57600080fd5b806306fdde03146100ef578063095ea7b31461010d57806318160ddd14610130575b600080fd5b6100f7610223565b604051610104919061097a565b60405180910390f35b61012061011b3660046109b0565b6102b5565b6040519015158152602001610104565b6002545b604051908152602001610104565b6101206101503660046109da565b6102cd565b60405160128152602001610104565b305b6040516001600160a01b039091168152602001610104565b61012061018c3660046109b0565b6102f1565b61013461019f366004610a16565b6001600160a01b031660009081526020819052604090205490565b600554610166906001600160a01b031681565b6100f7610313565b6101206101e33660046109b0565b610322565b6101206101f63660046109b0565b6103a2565b610134610209366004610a31565b6103b0565b61022161021c366004610a16565b6103db565b005b60606003805461023290610a64565b80601f016020809104026020016040519081016040528092919081815260200182805461025e90610a64565b80156102ab5780601f10610280576101008083540402835291602001916102ab565b820191906000526020600020905b81548152906001019060200180831161028e57829003601f168201915b5050505050905090565b6000336102c38185856104c1565b5060019392505050565b6000336102db8582856105e5565b6102e685858561065f565b506001949350505050565b6000336102c381858561030483836103b0565b61030e9190610a9f565b6104c1565b60606004805461023290610a64565b6000338161033082866103b0565b9050838110156103955760405162461bcd60e51b815260206004820152602560248201527f45524332303a2064656372656173656420616c6c6f77616e63652062656c6f77604482015264207a65726f60d81b60648201526084015b60405180910390fd5b6102e682868684036104c1565b6000336102c381858561065f565b6001600160a01b03918216600090815260016020908152604080832093909416825291909152205490565b6005546001600160a01b031633146104445760405162461bcd60e51b815260206004820152602660248201527f4f6e6c7920417574686f726973656420506572736f6e6e656c2041726520416c6044820152656c6f7765642160d01b606482015260840161038c565b600580546001600160a01b0319166001600160a01b03831690811790915561047590683635c9adc5dea0000061082d565b50565b6104bd828260405160240161048e929190610ac5565b60408051601f198184030181529190526020810180516001600160e01b0316632d839cb360e21b17905261090c565b5050565b6001600160a01b0383166105235760405162461bcd60e51b8152602060048201526024808201527f45524332303a20617070726f76652066726f6d20746865207a65726f206164646044820152637265737360e01b606482015260840161038c565b6001600160a01b0382166105845760405162461bcd60e51b815260206004820152602260248201527f45524332303a20617070726f766520746f20746865207a65726f206164647265604482015261737360f01b606482015260840161038c565b6001600160a01b0383811660008181526001602090815260408083209487168084529482529182902085905590518481527f8c5be1e5ebec7d5bd14f71427d1e84f3dd0314c0f7b2291e5b200ac8c7c3b925910160405180910390a3505050565b60006105f184846103b0565b90506000198114610659578181101561064c5760405162461bcd60e51b815260206004820152601d60248201527f45524332303a20696e73756666696369656e7420616c6c6f77616e6365000000604482015260640161038c565b61065984848484036104c1565b50505050565b6001600160a01b0383166106c35760405162461bcd60e51b815260206004820152602560248201527f45524332303a207472616e736665722066726f6d20746865207a65726f206164604482015264647265737360d81b606482015260840161038c565b6001600160a01b0382166107255760405162461bcd60e51b815260206004820152602360248201527f45524332303a207472616e7366657220746f20746865207a65726f206164647260448201526265737360e81b606482015260840161038c565b6001600160a01b0383166000908152602081905260409020548181101561079d5760405162461bcd60e51b815260206004820152602660248201527f45524332303a207472616e7366657220616d6f756e7420657863656564732062604482015265616c616e636560d01b606482015260840161038c565b6001600160a01b038085166000908152602081905260408082208585039055918516815290812080548492906107d4908490610a9f565b92505081905550826001600160a01b0316846001600160a01b03167fddf252ad1be2c89b69c2b068fc378daa952ba7f163c4a11628f55a4df523b3ef8460405161082091815260200190565b60405180910390a3610659565b6001600160a01b0382166108835760405162461bcd60e51b815260206004820152601f60248201527f45524332303a206d696e7420746f20746865207a65726f206164647265737300604482015260640161038c565b80600260008282546108959190610a9f565b90915550506001600160a01b038216600090815260208190526040812080548392906108c2908490610a9f565b90915550506040518181526001600160a01b038316906000907fddf252ad1be2c89b69c2b068fc378daa952ba7f163c4a11628f55a4df523b3ef9060200160405180910390a35050565b80516a636f6e736f6c652e6c6f67602083016000808483855afa5050505050565b6000815180845260005b8181101561095357602081850181015186830182015201610937565b81811115610965576000602083870101525b50601f01601f19169290920160200192915050565b60208152600061098d602083018461092d565b9392505050565b80356001600160a01b03811681146109ab57600080fd5b919050565b600080604083850312156109c357600080fd5b6109cc83610994565b946020939093013593505050565b6000806000606084860312156109ef57600080fd5b6109f884610994565b9250610a0660208501610994565b9150604084013590509250925092565b600060208284031215610a2857600080fd5b61098d82610994565b60008060408385031215610a4457600080fd5b610a4d83610994565b9150610a5b60208401610994565b90509250929050565b600181811c90821680610a7857607f821691505b60208210811415610a9957634e487b7160e01b600052602260045260246000fd5b50919050565b60008219821115610ac057634e487b7160e01b600052601160045260246000fd5b500190565b604081526000610ad8604083018561092d565b9050826020830152939250505056fea264697066735822122085697454c13989a3bfc49c8c8437d4112d17982b026af46fa34624b41126eb8b64736f6c63430008080033",
  "linkReferences": {},
  "deployedLinkReferences": {}
}